:100000000BC010C00FC00EC00DC00CC00BC00AC08A
:1000100009C008C007C006C011241FBECFEDCDBF68
:1000200013D031C0EDCF089508950895089508952F
:100030008617970734F0481759072CF4842F952F0B
:100040000895862F972F08952FEF89E698E1215084
:1000500080409040E1F700C00000B89A2FEF89E699
:1000600098E1215080409040E1F700C00000C09A24
:100070002FEF89E698E1215080409040E1F700C0E1
:0A0080000000C098EBCFF894FFCF0A
:00000001FF
