:100000001AC01FC01EC01DC01CC01BC01AC019C012
:1000100018C017C016C015C03CC03EC040C042C08A
:1000200044C047C049C04BC04DC04FC051C053C071
:1000300055C057C059C011241FBECFEDCDBF78D0D9
:1000400086C0DECF8230910591F02CF4009749F004
:10005000019751F008958330910561F0049769F09C
:10006000089583B781600BC083B7826008C083B7EF
:10007000836005C083B7846002C083B7856083BF97
:1000800008958F30910598F5E82FF92FE45FFF4F21
:10009000099483B781600BC083B7826008C083B7BF
:1000A000836005C083B7846002C083B7856083BF67
:1000B00008958FB586601AC08FB5876017C08FB559
:1000C000886014C08FB5896011C08FB58A600EC07A
:1000D0008FB58B600BC08FB58C6008C08FB58D60FD
:1000E00005C08FB58E6002C08FB58F608FBD08953B
:1000F000B99A80B7806880BF8FEF8BBD88E090E0B1
:10010000C0CF80B7826080BF089590B7926090BFE3
:100110008DBD0895089508958617970734F0481700
:1001200059072CF4842F952F0895862F972F089523
:10013000DFDFC0E82FEF80E792E021508040904061
:10014000E1F700C000008C2FE0DFCC5FF3CFF89424
:02015000FFCFDF
:00000001FF
